:10B9BD0073636F72653A006C697665733A004C3A41
:10B9CD000047616D65204F76657221006C65766567
:0CB9DD006C3A0074696D652873293A000B
:10531B004404C4000000004204AD00004204B80085
:10532B00014204A200004104A40A42049C00014172
:10533B00049B004104B3004104D8004204AB0000BD
:10534B004204AF000042048900004204B40008424A
:10535B00049E00004204C000004204D4005F4204DB
:10536B00D6000042048F005F420493000042049178
:10537B00005F42049700004204850000420487004E
:10538B00034204E200014204B602584204C804B0CE
:10539B0042047F000A420495005F420499000042D8
:1053AB0004A000054204B100004204BE0000420408
:1053BB00A9000142047D005F4104E1004404DD00CB
:1053CB000000004404BA0000000044048100000007
:1053DB00004404CC000000004204CA00004404D086
:0953EB00000000004204C2001E93
:10000E002086037F01222084037F002220A5037F08
:05001E0002227FFF2219
:10BD8800438E805389F0758A88758C96C28DD28CC3
:05BD9800D2A9D2AF2288
:0FBE32009004C4E0FCA3E0FDA3E0FEA3E0FF2228
:1095EE00E49004ABF0A3F09004AFF0A3F0900489E4
:1095FE00F0A3F09004B4F0A37408F0E490049EF08D
:10960E00A3F09004C0F0A3F09004D4F0A3745FF024
:10961E00E4A3F0A3F090048FF0A3745FF0E4900441
:10962E0093F0A3F0900491F0A3745FF0E49004978C
:10963E00F0A3F0900485F0A3F0A3F0A37403F090D0
:10964E0004E2E4F0A304F09004B604F0A37458F01E
:10965E009004C87404F0A374B0F090047FE4F0A3F7
:10966E00740CF0900495E4F0A3745FF0E490049908
:10967E00F0A3F09004A0F0A37405F0E49004B1F010
:10968E00A3F09004BEF0A3F09004A9F0A304F09010
:10969E0004DD123B1F000000009004BA123B1F00B5
:1096AE00000000900481123B1F000000009004CCCB
:0896BE00123B1F000000002216
:10986D00E4FFE4FEEE706C9004B3E014602A146023
:10987D002914604324036003029921EF75F003A4BA
:10988D002408F582E43406F583E5822EF582E4356D
:10989D0083F5837472F0807C805AEF75F003A424F5
:1098AD0008F582E43406F583E5822EF582E43583EE
:1098BD00F58374FFF0805DEF75F003A42408F58245
:1098CD00E43406F583E5822EF582E43583F583E4F1
:1098DD00F08041EEB4011DEF75F003A42408F5826C
:1098ED00E43406F583E5822EF582E43583F5837441
:1098FD00B3F080209004ADA3E0FDEF75F003A42438
:10990D0008F582E43406F583E5822EF582E435838D
:10991D00F583EDF00EEE640360030298710FEF64B2
:06992D0008600302986FC0
:019933002211
:10B216009004B8E0FEA3E0FF9004AEE02FF09004A7
:10B22600ADE03EF0E0FEA3E0FFC394FFEE64809441
:10B236008040109004ADE4F0A374FFF09004B8F0E1
:10B24600A3F022D3EF9400EE64809480500EE49035
:0DB2560004ADF0A3F09004B8F0A304F022C2
:10B6940090049CE0FEA3E0FFE4FCFD7B6D7A4E7910
:10B6A400C6784112396AEF2439FFEE3430FEE43DA6
:10B6B400FDE43CFC90049CEEF0A3EFF090049CE0CD
:0EB6C400FEA3E07810CEC313CE13D8F9FF22F8
:10B47600E49006DEF0E49006DFF012B6949006DF64
:10B48600E0FE9006DEE075F003A42408F582E434BD
:10B4960006F583E5822EF582E43583F583EFF09099
:10B4A60006DFE004F0E0C3940340CF9006DEE0043C
:07B4B600F0E0C3940840BE62
:01B4BD00226C
:03000B0002ABD273
:10ABD200C0E0C0F0C083C082C0D075D000C000C049
:10ABE20004C005C006C0079004C4E0FCA3E0FDA3B6
:10ABF200E0FEA3E02401FFE43EFEE43DFDE43CFC74
:10AC02009004C4123B139004A3E004F07006900475
:10AC1200A2E004F09004A4E0FFC39004A3E09F909C
:10AC220004A2E094004007E4F0A3F012B216D007A9
:10AC3200D006D005D004D000D0D0D082D083D0F0BE
:03AC4200D0E0322D
:0300430002A522F1
:0DA52200C0E0C083C082C0D075D000C0076B
:10A52F00E59A30E074539AFEAF9BEFB43105900477
:10A53F00B3802EEFB432059004B38031EFB43305FE
:10A54F009004B38034EFB434059004B38037EFB484
:10A55F0035089004B37405F08035EFB441089004CA
:10A56F009B7401F08029EFB4420890049B7402F0B1
:10A57F00801DEFB4430890049B7403F08011EFB477
:10A58F00440890049B7404F080059004B3E4F08FAA
:09A59F009BE59A30E1FB539AFDA3
:0BA5A800D007D0D0D082D083D0E032AA
:106FE300E49004E4F0A3F0A37408F0E4A3F0A3F0A6
:106FF300A3F0A3F0A3F0A3F0A3F0A37480F0A37411
:107003001EF0E4A3F0A3F09004FA7440F0A374FF1D
:10701300F0A3740EF0A374B1F07B80E4FDFCFFFEDB
:10702300126B3C12B81C30840890049BE06402602D
:10703300F57F647E0012B9E912BA4012B81C9004BD
:107043009BE0640260030271FB9004F0E064017052
:107053005912B3E312000E9004E4EFF0BF02DF1203
:10706300BA4012B81C9004E9E0FEA3E0FF9004E7E5
:10707300E0FCA3E0FDD39FEC9E4006A3ECF0A3ED60
:10708300F0E49004E7F0A3F09004F0F09004EBF048
:10709300A3F09004F104F0FF1274139004E5E0FFF1
:1070A3009004F1E0FD1277EE80949004E8E004F0A0
:1070B30070069004E7E004F0D39004ECE0940090B1
:1070C30004EBE064809480500812000E9004E4EF17
:1070D300F012B0C212853BD39004ECE0940090040C
:1070E300EBE06480948050079004E4E0B4011290D4
:1070F30004F1E0FF1274139004EBEEF0A3EFF080C1
:107103000312AADC9004E5E0FF9004F1E0FD12779E
:10711300EE9004EDEEF0A3EFF09004E5E0FF7006CF
:10712300A37408F0800FEF9004E6B401057410F027
:1071330080037418F09004E6E0FF9004EEE02F90D3
:1071430004EDE03400C364809480501612B34A7C8B
:10715300007D041238E6AF059004E5EFF07D0112DF
:1071630077EEC39004ECE094109004EBE064809419
:1071730080504B9004EDE0FEA3E0FFC39410EE6457
:10718300809480400BD3EF9420EE64809480402859
:107193009004E6E0FF9004EEE02FFF9004EDE0346E
:1071A30000FEC3EF9410EE648094804011D3EF94FB
:1071B30020EE6480948050069004F07401F0E49013
:1071C30004F1F09004E7E0FEA3E0FF7C007D1412DD
:1071D30038919004EFEFF0D3941D4003741DF090A9
:1071E30004EFE0FFC3741E9FFFE49400FE12B9E9AD
:0871F300E49004E4F002704195
:0171FB002271
:10286B0012BA409004FA7440F0A374FFF0A37412F0
:10287B00F0A374B1F07B80E4FDFCFFFE126B3C1205
:10288B00B81C30840890049BE0640160F590049BB5
:10289B00E0640160030232FC12BE329004D0123BA2
:1028AB00139004C0E07002A3E060030231DB12BAA4
:1028BB00407D1E7C007F327E00129A1E7D117C00B3
:1028CB007F1E7E00129A1E7D127C007F3C7E0012C2
:1028DB009A1E7D107C007F377E00129A1E7D2B7C0A
:1028EB00007F197E00129A1E7D2B7C007F647E0078
:1028FB00129A1E7D347C007F757E00129A1E7D31EC
:10290B007C007F0E7E00129A1E7D187C007F187E45
:10291B0000129A1E7D247C007F4E7E00129A1E7D33
:10292B00397C007F507E00129A1E7D0B7C007F6BE2
:10293B007E00129A1E7D0B7C007F967E00129A1EE3
:10294B007D057C007F057E00129A1E7D077C007F33
:10295B00087E00129A1E7D0C7C007F467E00129A28
:10296B001E7D387C007F0A7E00129A1E7D197C002A
:10297B007F467E00129A1E9004B1E07002A3E070B5
:10298B002E12BE329004DD123B1312B34A7C037D30
:10299B00201238E6ED2490FFEC3401FE3395E0FD78
:1029AB00FC9004BA123B139004B1E4F0A304F012B0
:1029BB00BE32900481123B139004CCE0F8A3E0F9F3
:1029CB00A3E0FAA3E0FB900481E0FCA3E0FDA3E00D
:1029DB00FEA3E0C39BFFEE9AFEED99FDEC98FCE4A1
:1029EB007B507AC3F9F8C3123A95507B900481E07F
:1029FB00FCA3E0FDA3E0FEA3E0FF9004CC123B138D
:102A0B009004AAE004F070069004A9E004F090048E
:102A1B0088E004F07006900487E004F09004A9E0CD
:102A2B00FEA3E0FF7C007D021238E6ED4C701C909B
:102A3B0004E3E004F070069004E2E004F0900480FC
:102A4B00E024FFF090047FE034FFF09004B7E02423
:102A5B00CEF09004B6E034FFF09004C9E024CEF041
:102A6B009004C8E034FFF09004DDE0FCA3E0FDA38C
:102A7B00E0FEA3E0FF9004BAE0F8A3E0F9A3E0FACC
:102A8B00A3E02FFFEA3EFEE93DFDE83CFC9004810C
:102A9B00E0F8A3E0F9A3E0FAA3E0FBD3123A9550D8
:102AAB0003022B4BE49004B1F0A3F09004BFE004BD
:102ABB00F070069004BEE004F09004BEE0FEA3E0CC
:102ACB00FF64014E70179004D4F0A3745FF0900470
:102ADB00B4E0FDA3E09004D6CDF0A3EDF0EF6402DB
:102AEB004E701790048FF0A3745FF09004B4E0FF66
:102AFB00A3E0900493CFF0A3EFF09004BEE070043A
:102B0B00A3E064037017900491F0A3745FF090043A
:102B1B00B4E0FFA3E0900497CFF0A3EFF09004BED6
:102B2B00E07004A3E064047017900495F0A3745F45
:102B3B00F09004B4E0FFA3E0900499CFF0A3EFF082
:102B4B00D39004BFE094009004BEE0648094804076
:102B5B002D9004D4E0FEA3E0FFA3E0FCA3E0FDE492
:102B6B009004E9F07B021258E5900487E0FEA3E0A5
:102B7B00FFC39004D5E09FF09004D4E09EF0D39077
:102B8B0004BFE094019004BEE064809480402F90D9
:102B9B00048FE0FEA3E0FF900493E0FCA3E0FDE4D0
:102BAB009004E9F07B011258E5900487E0FEA3E066
:102BBB00FFC3900490E09FF090048FE09EF0D390C1
:102BCB0004BFE094029004BEE064809480402F9098
:102BDB000491E0FEA3E0FF900497E0FCA3E0FDE48A
:102BEB009004E9F07B041258E5900487E0FEA3E023
:102BFB00FFC3900492E09FF0900491E09EF0D3907D
:102C0B0004BFE094039004BEE064809480402F9056
:102C1B000495E0FEA3E0FF900499E0FCA3E0FDE443
:102C2B009004E9F07B021258E5900487E0FEA3E0E4
:102C3B00FFC3900496E09FF0900495E09EF03086E1
:102C4B00079004B3E0B40224C39004C3E094029051
:102C5B0004C2E0648094804013E49004B3F09004C9
:102C6B00C3E024FEF09004C2E034FFF030A50790DF
:102C7B0004B3E0B40324D39004C3E0942E9004C2B5
:102C8B00E0648094805013E49004B3F09004C3E0AC
:102C9B002402F09004C2E03400F03084079004B3B7
:102CAB00E0B40132900489E07002A3E07028900434
:102CBB00B3F0900489F0A304F09004ABE4F0A37498
:102CCB0006F09004C3E02408FE9004C2E0340090A8
:102CDB0004AFF0A3CEF0900489E07004A3E064018C
:102CEB00703B9004ACE02408F09004ABE03400F0AF
:102CFB00E0FAA3E0FBFFAE02C0079004AFE0FCA339
:102D0B00E0FDEB2404FBE43AFA9004AFE0FFA3E010
:102D1B009004EACFF0A3EFF0D0071261289004C221
:102D2B00E0FCA3E0FD9004FA7410F0A374FFF0A391
:102D3B007409F0A3748CF07B107F047E00126B3C43
:102D4B0090047DE0FEA3E0FF9004B4E0FCA3E0FD63
:102D5B0090047FA3E0FBE49004E9F01258E59004A3
:102D6B007FE0FEA3E0FF7C007D031238E6AB07900B
:102D7B00047EE02402FF90047DE03400FE9004B555
:102D8B00E02403FD9004B4E03400FC9004E97401EA
:102D9B00F01258E57BFF7AB979BD9004EB7406F01D
:102DAB007D397C007F217E0012ADFB900485E0FE17
:102DBB00A3E0FFEE3395E0FDFC9004E8123B13908B
:102DCB0004EC7403F0A37406F07D397C007F447E21
:102DDB000012A5B37BFF7AB979C49004EB7406F0AB
:102DEB00E4FDFC7F21FE12ADFB9004A0E0FEA3E00E
:102DFB00FFEE3395E0FDFC9004E8123B139004ECDE
:102E0B007401F0A37406F0E4FDFC7F44FE12A5B33D
:102E1B007BFF7AB979CB9004EB7406F0E4FDFC7F71
:102E2B006EFE12ADFB9004A9E0FEA3E0FFEE33951E
:102E3B00E0FDFC9004E8123B139004EC7401F0A34A
:102E4B007406F0E4FDFC7F7AFE12A5B3E47BE87A0E
:102E5B0003F9F8900481E0FCA3E0FDA3E0FEA3E0FE
:102E6B00FF1239F59004E8123B139004EC7403F055
:102E7B00A37406F07D397C007F6C7E0012A5B31223
:102E8B00B81CD39004ACE094809004ABE0648094C5
:102E9B00804007E4900489F0A3F090049EE0700258
:102EAB00A3E09004E27013E0FEA3E0FF9004B5E012
:102EBB002FF09004B4E03EF08012E0FEA3E0FFC3DD
:102ECB009004B5E09FF09004B4E09EF090047FE096
:102EDB00FEA3E0FFC374409FFDE49EFC9004B4E0AE
:102EEB00FAA3E0FBC39DEC6480F8EA648098400889
:102EFB0090049EE4F0A304F0D3EB9FEE6480F8EA19
:102F0B006480985007E490049EF0A3F090047FE057
:102F1B00FEA3E0FFC3EB9FFFEA9EFE9004AFE0FC35
:102F2B00A3E0FDC39FEE6480F8EC6480985003022D
:102F3B002FC790047FE0FEA3E0FF9004B5E02FFFC6
:102F4B009004B4E03EFED3ED9FEE6480F8EC648019
:102F5B0098506990047FE0FEA3E0FFC390047EE0ED
:102F6B009FFF90047DE09EFE9004ABE0FCA3E0FD90
:102F7B00D39FEE6480F8EC648098404090047FE02F
:102F8B00FEA3E0FF90047EE02FFF90047DE03EFE69
:102F9B00C3ED9FEE6480F8EC648098501F9004ABF7
:102FAB0074FFF0A374ECF0900486E004F0700690CC
:102FBB000485E004F0E4900489F0A3F09004C3E0EE
:102FCB002408FF9004C2E03400FE9004CAF0A3EF83
:102FDB00F024F8FFEE34FFFE9004D6E0FCA3E0FDF6
:102FEB00C39FEE6480F8EC64809840569004CBE06D
:102FFB002408FB9004CAE03400FAD3ED9BEA64800A
:10300B00F8EC648098503B9004D4E0FCA3E0FDC343
:10301B00940CEC648094805029ED9404EC648094BF
:10302B0080401F9004D4E4F0A3745FF0A374FFF00E
:10303B00A374CEF09004A1E024FFF09004A0E03440
:10304B00FFF0900493E0FCA3E0FDC39FEE6480F8D7
:10305B00EC64809840599004CBE02408FF9004CA9C
:10306B00E03400FED3ED9FEE6480F8EC6480985062
:10307B003E90048FE0FEA3E0FFC3940CEE648094BB
:10308B0080502CEF9404EE64809480402290048F47
:10309B0074FFF0A374CEF090049374FFF0A374CE7E
:1030AB00F09004A1E024FFF09004A0E034FFF09036
:1030BB0004CAE0FEA3E0FF24F8FDEE34FFFC90040D
:1030CB0097E0FAA3E0FBC39DEC6480F8EA64809878
:1030DB004052EF2408FFE43EFED3EB9FEE6480F8F2
:1030EB00EA648098503E900491E0FEA3E0FFC39405
:1030FB000CEE64809480502CEF9404EE64809480EA
:10310B00402290049174FFF0A374CEF09004977456
:10311B00FFF0A374CEF09004A1E024FFF09004A084
:10312B00E034FFF09004CAE0FEA3E0FF24F8FDEECC
:10313B0034FFFC900499E0FAA3E0FBC39DEC6480A0
:10314B00F8EA6480984058EF2408FFE43EFED3EB86
:10315B009FEE6480F8EA6480985044900495E0FEFA
:10316B00A3E0FFC3940CEE648094805032EF940480
:10317B00EE648094804028900495E4F0A374C8F02A
:10318B0090049974FFF0A374CEF0E49004BEF0A306
:10319B00F09004A1E024FFF09004A0E034FFF0C312
:1031AB00900496E09401900495E064809480500F15
:1031BB00E49004BEF0A3F0900495F0A374C8F090D3
:1031CB0004A0E07002A3E070079004C0F0A304F029
:1031DB009004C0E07004A3E064016003022898909F
:1031EB0004A0E07002A3E070089004A0F0A37405A3
:1031FB00F012BA407BFF7AB979CE9004EB7408F0E9
:10320B007D0A7C007F077E0012ADFB7BFF7AB979CC
:10321B00BD9004EB7406F07D1E7C007F077E0012D0
:10322B00ADFB900485E0FEA3E0FFEE3395E0FDFCE3
:10323B009004E8123B139004EC7403F0A37406F0B3
:10324B007D1E7C007F2C7E0012A5B37BFF7AB979A3
:10325B00D99004EB7406F07D287C007F077E00126A
:10326B00ADFB9004A9E0FEA3E0FFEE3395E0FDFC7F
:10327B009004E8123B139004EC7401F0A37406F075
:10328B007D287C007F2C7E0012A5B37BFF7AB97959
:10329B00E09004EB7406F07D327C007F077E001219
:1032AB00ADFBE47BE87A03F9F8900481E0FCA3E042
:1032BB00FDA3E0FEA3E0FF1239F59004E8123B13E7
:1032CB009004EC7403F0A37406F07D327C007F3C19
:1032DB007E0012A5B312B81C30840B9004B3E064CB
:1032EB00016003022898E49004B3F01295EE0228D3
:0232FB00982217
:10908000E49004E4F0A3F012BDFF12A0E412AD8F4F
:1090900090046DE0FEA3E0FF900474E0FCA3E0FD0B
:1090A00012A05412B2B07B017A0479E412B6D27FD6
:1090B0008012B11D7FE87E0312B4BE90046DE4F00F
:1090C000A37437F0900474E4F0A37405F090049B4B
:1090D000E0B403B67B017A0479E41288D990047B6A
:1090E000E064067055129EFC12BA6AEF60167F802B
:1090F00012B11D7F0312BB607FD07E0712B4BE1277
:10910000BF4B8086900474E4F0A37402F090046D69
:10911000E4F0A37437F090046BE090046AF07B01F4
:109120007A0479E412B6D29004607401F07F801260
:10913000B11D12AD8F7F8012B11D12BEF2EF4E60D5
:109140000F900469E0700912BD719004697401F018
:1091500012979E9004E5E0B4060D7F5212B11DE413
:109160009004E5F00290CD9004E5E004F00290CD8B
:1064E60012BD8812BD9D12BD5812BBF412A9E490CC
:1064F60004FA7440F0A374FFF0A3741AF0A374B105
:10650600F07B80E4FDFCFFFE126B3C12B81C20847D
:106516000302682030870E9004D8E0700812986D48
:1065260012BABE80EF9004D87401F012950CE4FF05
:10653600FEFD7C40900529E0F8A3E0F9A3E0FAA36C
:10654600E0FB1233F5900531E0F8A3E0F9A3E0FA99
:10655600A3E0FB1233F5C004C005C006C007E4FF84
:10656600FEFD7C4090052DE0F8A3E0F9A3E0FAA338
:10657600E0FB1233F5900535E0F8A3E0F9A3E0FA65
:10658600A3E0FB1233F5D003D002D001D0001233C2
:106596000012B70E7B337A33796578421233F59061
:1065A60004D9123B13E4FFFEFD7C40900529E0F878
:1065B600A3E0F9A3E0FAA3E0FB1233F590052DE082
:1065C600F8A3E0F9A3E0FAA3E0FB1233F5C004C098
:1065D60005C006C007E4FFFEFD7C40900531E0F8EB
:1065E600A3E0F9A3E0FAA3E0FB1233F5900535E04A
:1065F600F8A3E0F9A3E0FAA3E0FB1233F5D003D049
:1066060002D001D000123304C004C005C006C00782
:10661600E4FFFEFD7C40900531E0F8A3E0F9A3E03D
:10662600FAA3E0FB1233F5900531E0F8A3E0F9A3F5
:10663600E0FAA3E0FB1233F5C004C005C006C007AC
:10664600E4FFFEFD7CC090052DE0F8A3E0F9A3E091
:10665600FAA3E0FB1233F590052DE0F8A3E0F9A3C9
:10666600E0FAA3E0FB1233F5D003D002D001D0004C
:10667600123300E4FBFA7980783F1233049004E881
:10668600123B13D007D006D005D00412A2C07B332C
:106696007A33796578421233F590048B123B139066
:1066A6000535E0FCA3E0FDA3E0FEA3E0FF9005298D
:1066B600E0F8A3E0F9A3E0FAA3E0FB1233F5C00487
:1066C600C005C006C007900531E0FCA3E0FDA3E0CD
:1066D600FEA3E0FF90052DE0F8A3E0F9A3E0FAA3FE
:1066E600E0FB1233F5D003D002D001D00012330400
:1066F600E4FBFAF978401233F5C004C005C006C0C1
:106706000790052DE0FCA3E0FDA3E0FEA3E0FF90CB
:10671600052DE0F8A3E0F9A3E0FAA3E0FB1233F5B8
:10672600C004C005C006C007900529E0FCA3E0FD33
:10673600A3E0FEA3E0FF900529E0F8A3E0F9A3E0BB
:10674600FAA3E0FB1233F5D003D002D001D0001239
:106756003304C004C005C006C007900531E0FCA3A1
:10676600E0FDA3E0FEA3E0FF900531E0F8A3E0F929
:10677600A3E0FAA3E0FB1233F5A804A905AA06AB29
:1067860007D007D006D005D004123300C004C005D8
:10679600C006C007900535E0FCA3E0FDA3E0FEA31C
:1067A600E0FF900535E0F8A3E0F9A3E0FAA3E0FBEB
:1067B6001233F5A804A905AA06AB07D007D006D060
:1067C60005D0041233009004E8123B13D007D0061C
:1067D600D005D00412A2C07B337A33796578421291
:1067E60033F59004A5123B137B017A0479D912BCC8
:1067F600577B017A04798B12BC577B017A0479A501
:1068060012BC57E4FF12BEE9E4FF12BEE97F801214
:10681600BEE97F7F12BEE90265149004FA7440F067
:10682600A374FFF0A3741EF0A374AEF07B80E4FDA6
:10683600FCFFFE126B3C12B81C90049BE024FE6029
:106846000F146011146013240370CF12286B80CAD2
:0F685600126FE380C512908080C012B61280BB13
:0EBE8C00000000000001010303040405060786
:1053F4006400000E00007E0040003C42423C00007D
:1054040000000080C0C06020301018180C7F030317
:1054140003030303037F08181810303060C0C080F2
:105424000000000000000000000000000000000078
:1054340000C0E0E0F0F0F0F0F0F0F0F00030F0F058
:10544400F0F0F0F0F0F0F0F0F0F0F0F0000000E038
:10545400F0F0F0F0F0F0F0F000000000F0F0F0F008
:10546400F0F0F0F0F0F0F0E0E0E0C08000000000C8
:105474000000000000000000000000000000E0F058
:105484001C0E0301000000000000000000000000EA
:105494000000000000000000000000000000000107
:1054A400030E1CF0C000000000000000000000001B
:1054B400000F1F3F3F7FFFFFFFFFC7870000070765
:1054C40007FFFFFFFFFFFFFF0F0707070080FCFF39
:1054D400FFFF7FFFFFFFFFFFFFE00000FFFFFFFF75
:1054E400FFFFFFFFC7E7FFFFFF7F3F1F0000000034
:1054F40000000000000000000000000080FEFFF833
:10550400F0000000000000000000000000000000A7
:105514000000000000000000000000000000000087
:105524000000E0F8FFFC8000000000000000000024
:105534000000001C1C1C1F1F1F0F0F070000000091
:1055440000011F1F1F1F1F1F00000000181F1F1F27
:105554001F1E1E0F1F1F1F1F1F1F1C00071F1F1FA3
:105564001F1F1F1F070F1F3F3F1E0C0800000000D6
:1055740000000000000000000078FE0701000103A5
:1055840007C6F4F4E4E4ECE8E8E8C8C8C8D8D8D816
:10559400D8D8D8D8D8D8C8E8E8E8E8E8ECE4E4E40F
:1055A400F646030301000183FE78000000000000BA
:1055B40000000F1FFFFFFFFFFF8F0000CFFFFFFF63
:1055C400FFFF8F0000CFFFFFFF1F0F0080C0C0E070
:1055D400E0606060E0E0E0C0C080000000E0E0E087
:1055E400E0E0E080C0C0E0E0000000000000000057
:1055F400000000000000000000000107FE1C000085
:105604000811274383010101000000000000001F6E
:10561400FFFFFF0F000000000000000101018343B1
:1056240027100800003CFE030100000000000000F9
:105634000000000000031FFFFFFFFCFE7F1F071F89
:105644007FFFFFFCFEFF1F0300000000387CFEFE0E
:10565400FEEEC646FFFFFFFFFFFFE00000E0FFFF96
:10566400FFFFFFFFE703030300000000000000004A
:105674000000000000000000C0F03C0733787068B0
:1056840010202040413208404020301018180C0CE3
:105694000F0F0F0C1C181830202040401C234140D1
:1056A400203010287078370F3CF080000000000094
:1056B40000000000000000000000000000000000E6
:1056C40000000000000000000000000000000000D6
:1056D40000000000000000000000000000000000C6
:1056E40000000000000000000000000000000000B6
:1056F4000000000000000000030F383060C0C0004C
:105704000000000000000000000000000000C0C015
:10571400E0E0E0C000000000008080000000000025
:1057240000000000C0C060301C0F01000000000039
:1057340000000000000000000000F8F8F80000F885
:10574400F8F80000000000000000000000F8F878FD
:10575400F88000000080F078F8F8000000C0F070D5
:105764003818180808000000F8F8F80000000000D5
:10577400F800000000000000000000000000030723
:105784000C18303060664F4F5F5F4F4F6360301CC2
:105794000C05041C3060674F4F4F5F4F4F666030FD
:1057A40030180C0703000000000000000000000097
:1057B400000000000000003030381F0F0700003FD9
:1057C4003F3F30303030000000000000003F3F0019
:1057D400011F3E3C3E0F01003F3F000000071F1C1D
:1057E40038303030300000000F1F3F303030303858
:1057F4000F0000004200000000420002008041004F
:1058040004004100050042000600804200080080B8
:0D58140041000A0842000B000041000D0099
:09BED700EF6003D28222C2822234
:09BEE000EF6003D28322C2832229
:10BD0A00750816750903750AE3D50AFDD509FAD52A
:0ABD1A0008F77F0112BED702BEE059
:0FBE41007F0112BEE012BED71F12BEE002BED7B5
:0CBEA700E4FF12BEE00F12BED702BEE0A6
:10B39700FD7F1012BE5F12BE417F7812B3A77F40B8
:02B3A700AD07F0
:10B3A900E4FC7E007480A804088006CEA2E713CED0
:10B3B90013D8F8FFEDFBEF5B60047F0180027F008B
:10B3C90012BEE07F0112BED71F12BED70CECB40823
:0AB3D900D17F0112BED71F02BED7BC
:0DBBD000FF12BBDDE954F0C4540F4410FF18
:10BBDD00AA0712BE417F7812B3A7E4FF12B3A7AF35
:07BBED000212B3A702BEA77C
:0EB5D0009004F3EBF0A3EAF0A3E9F0A3EDF092
:10B5DE0012B39DE4A3F09004F6E0FFA3E0FEC39F38
:10B5EE00501F9004F3E0FBA3E0FAA3E0F98E8275FE
:10B5FE008300123840FF12B3A79004F7E004F080E6
:04B60E00D502BEA7FC
:10A9E40012BD0A7FAE12BBDD7FD512BBDD7F8012A4
:10A9F400BBDD7FA812BBDD7F3F12BBDD7FD312BB63
:10AA0400DDE4FF12BBDD7F4012BBDD7FA112BBDDA5
:10AA14007FC812BBDD7FDA12BBDD7F1212BBDD7F84
:10AA24008112BBDD7FCF12BBDD7FD912BBDD7FF18D
:10AA340012BBDD7FDB12BBDD7F3012BBDD7FA412D6
:10AA4400BBDD7FA612BBDD7F8D12BBDD7F1412BB85
:0CAA5400DD7FAF12BBDD12BA4002B81C5F
:0FBE5000A905EF44B012BBD0E9540FFF02BBDDD0
:10ACB500CF24FFCF34FFFE3395E0FDFC9004F31263
:0AACC5003B137F0A7E007D007C0037
:06ACCF009004EF123B139C
:10ACD5009004F7123B1F000000019004F374FF126B
:10ACE5003AE0EC4D4E4F60279004F7E0FCA3E0FD01
:10ACF500A3E0FEA3E0FF9004EFE0F8A3E0F9A3E0F2
:10AD0500FAA3E0FB12396A9004F7123B1380CB904B
:0DAD150004F7E0FCA3E0FDA3E0FEA3E0FFD7
:01AD2200220E
:10761F00900660EBF0A3EAF0A3E9F090065FEFF0BD
:10762F00E490066EF0A3F090066AF0A3F0EF24FF4B
:10763F00FEE434FFA3F0A3CEF090065FE0FFC3900B
:10764F00066BE09F7480F890066AE06480984003B0
:10765F000277E790066DE025E0FF90066CE033FEC1
:10766F00900663E0FBA3E0FAA3E0F98F828E83120A
:10767F003932FFC3900669E09FE5F06480F8900609
:10768F0068E064809850047D0180027D0090066B55
:10769F00E025E0FF90066AE0338F82F583123932DE
:1076AF00FFC3900669E09FE5F06480F8900668E0FC
:1076BF0064809850047F0180027F00EF6D70030299
:1076CF0077D190066BE025E0FF90066AE033FE90DD
:1076DF000660E0FBA3E0FAA3E0F98F828E831239F4
:1076EF0032FDACF090066DE025E0FF90066CE033C4
:1076FF008F82F583123932C39DFFE5F09CFEC006E1
:10770F00C00790066BE025E0FF90066AE033FE901D
:10771F000663E0FBA3E0FAA3E0F98F828E831239B0
:10772F0032FFC3900669E09FFD900668E095F0FC7C
:10773F00D007D00612387FC00790066BE025E0FF18
:10774F0090066AE0338F82F583123932FDACF090E8
:10775F00066DE025E0FF90066CE0338F82F5831213
:10776F003932C39DFDE5F09CFCD0071238E6AC061C
:10777F00AD0790066BE025E0FF90066AE033FE90C0
:10778F000660E0FBA3E0FAA3E0F98F828E83123943
:10779F00322DFFEC35F0FEC3900667E09FEE64805C
:1077AF00F8900666E0648098501890066EE07002BC
:1077BF00A3E070047F0180027F0090066EE4F0A3C7
:1077CF00EFF090066AE475F00112391CAFF09006E5
:0E77DF006CF0A3EFF002764890066EA3E0FF78
:0177ED002279
:10934200900657E0FCA3E0FD900652E0FAA3E0FB92
:10935200A3E0FFA3E09006C9CFF0A3EFF090065977
:05936200E0FEA3E0FFA6
:109367009006C3EEF0A3EFF09006C7EAF0A3EBF088
:10937700AE04AF05EC12362AC004C005C006C0070C
:109387009006C3E0FCA3E0FDEC12362A9004E81235
:109397003B13D007D006D005D00412A2C07BC37AF6
:1093A700F5794878401234FEE4FBFA7934784312B1
:1093B70033F51236639006C9E0FCA3E0FDC39006BF
:1093C700C8E09DEC6480F89006C7E064809850265A
:1093D700A3E09FEE6480F89006C7E0648098503E53
:1093E700C39006CAE09FEE6480F89006C9E06480E7
:1093F70098402B7F0122D39006C8E09FEE6480F847
:109407009006C7E064809840129006CAE09FEE6419
:1094170080F89006C9E064809840037F01227F00AE
:019427002222
:10B81C00E49004F2F09004F2E0FFC394085021E4A9
:10B82C00FD12BE50E075F080A4240EF9740035F0C2
:10B83C00FA7B017D8012B5D09004F2E004F080D543
:01B84C0022D9
:108E78009006AFEEF0A3EFF0A3ECF0A3EDF0A3EBB8
:018E8800F0F9
:108E89009006B1E0FEA3E0FF7C007D081238E6AB56
:108E990007AA069006B4E0FF9006B2E02FFF9006FD
:108EA900B1E03400CF24FFCF34FFFE7C007D0812EF
:108EB90038E6EF2401FFE43E9006B7F0A3EFF0C3D4
:108EC9009006B1E0648094805013EB1B70011A90F6
:108ED90006B8E024FFF09006B7E034FFF0AF039046
:108EE90006B5EAF0A3EFF09006B7E0FEA3E0FF9025
:108EF90006B5E0FCA3E0FDC39FEE6480F8EC648056
:108F090098507A9006AFE0FEA3E0FFC3EE64809428
:108F1900804056D3EF947FEE64809480504BC3EC2D
:108F2900648094804043D3ED9407EC64809480502E
:108F390038AF059006AFA3E0FD12BE509006B5E02C
:108F4900FEA3E07807C333CE33CED8F9240EF974E3
:108F5900003EFA7B019006AFE0FEA3E029F9EA3E64
:108F6900FA9006B3E0FD12B5D09006B6E004F060C1
:0D8F790003028EF09006B5E004F0028EF0C9
:018F860022C8
:10BA4000E4FFE4FE75F080EFA4240EF582E5F03407
:10BA500000F583E5822EF582E43583F583E4F00E6C
:09BA6000EEB480E00FEFB408D948
:01BA690022BA
:10867A00900504EEF0A3EFF0900508EBF0900506E4
:05868A00ECF0A3EDF08F
:10868F0090050CECF0A3EDF0900509E0FF900507C5
:10869F00E02FFF900506E03400FEC390050DE09F2C
:1086AF00EE6480F890050CE064809840030287A97F
:1086BF00900504E0FFA3E090050ACFF0A3EFF09040
:1086CF000508E0FF900505E02FFF900504E034005A
:1086DF00FE90050AE0FCA3E0FDC39FEE6480F8EC7A
:1086EF006480984003028795C3EC648094805003A4
:1086FF00028781D3ED947FEC648094805074A3E063
:10870F00FEA3E0FFC3EE648094804066D3EF943FF6
:10871F00EE64809480505B7C007D081238E6EF7821
:10872F0007C333CE33CED8F9240EF58274003EF54D
:10873F0083C083C08290050AE0FEA3E0D082D0837D
:10874F002582F582E5833EF583C083C082E0FB90EE
:10875F00050CE0FEA3E0FF7C007D081238E6AF05B4
:10876F00A8077401088002C333D8FCF45BD082D011
:10877F0083F090050BE004F060030286CE90050AAB
:10878F00E004F00286CE90050DE004F0600302864F
:0A879F009790050CE004F0028697A5
:0187A90022AD
:10BA1500E4FFE4FE75F080EFA4240EF582E5F03432
:10BA250000F583E5822EF582E43583F583E0F4F0B5
:0ABA35000EEEB480DF0FEFB408D866
:01BA3F0022E4
:1087AA009006B9EEF0A3EFF09006BDEBF09006BB91
:0587BA00ECF0A3EDF05E
:1087BF009006C1ECF0A3EDF09006BEE0FF9006BC72
:1087CF00E02FFF9006BBE03400FEC39006C2E09F8F
:1087DF00EE6480F89006C1E064809840030288D868
:1087EF009006B9E0FFA3E09006BFCFF0A3EFF090A3
:1087FF0006BDE0FF9006BAE02FFF9006B9E0340007
:10880F00FE9006BFE0FCA3E0FDC39FEE6480F8EC92
:10881F0064809840030288C4C3EC64809480500342
:10882F000288B0D3ED947FEC648094805073A3E002
:10883F00FEA3E0FFC3EE648094804065D3EF943FC6
:10884F00EE64809480505A7C007D081238E6EF78F1
:10885F0007C333CE33CED8F9240EF58274003EF51C
:10886F0083C083C0829006BFE0FEA3E0D082D08396
:10887F002582F582E5833EF583C083C082E0FB90BD
:10888F0006C1E0FEA3E0FF7C007D081238E6AF05CD
:10889F00A8077401088002C333D8FC6BD082D08341
:1088AF00F09006C0E004F060030287FE9006BFE080
:1088BF0004F00287FE9006C2E004F060030287C74F
:0988CF009006C1E004F00287C725
:0188D800227D
:109FA4009004EFEEF0A3EFF0A3ECF0A3EDF0A3EB3D
:109FB400F0A3E0B408459004F1E0FCA3E0FD9004B4
:109FC400FA7410F09004F3E0FF3395E0FEEFC4F868
:109FD400540FC868FFEEC454F048FE74462FF97459
:109FE400FE3EFA9004FB74FFF0A3EAF0A3E9F090BC
:109FF40004EFE0FEA3E0FF7B0880419004F4E0B4AA
:10A00400063D9004F3E0FF3395E0FE7C007D0612EC
:10A01400387F74762FF974053EFA9004FB74FFF0D0
:10A02400A3EAF0A3E9F09004EFE0FEA3E0FFA3E0CD
:10A03400FCA3E0FD9004FA7408F07B06126B3C224A
:10ADFB009004E4EEF0A3EFF0A3ECF0A3EDF0A3EBE3
:07AE0B00F0A3EAF0A3E9F057
:10AE1200E49004ECF09004E8E0FBA3E0FAA3E0F98C
:10AE22009004ECE0FFF582758300123840FB60323B
:10AE32009004EBE0FEEF8EF0A4FF9004E5E02FFF1C
:10AE42009004E4E035F0FE9004E6E0FCA3E0FD901F
:10AE520004EBE09004F4F0129FA49004ECE004F000
:02AE620080B3BB
:01AE640022CB
:0EA5B3009004E4EEF0A3EFF0A3ECF0A3EDF0C3
:10A5C100E49004EEF09004ECE0FD9004EEE0FCC3B6
:10A5D1009D506D9004EDE0FFEC8FF0A4FF9004E539
:10A5E100E02FFF9004E4E035F0FEC006C007ECFF69
:10A5F100C3ED9FFFE4940012ACB5A804A905AA0617
:10A60100AB079004E8E0FCA3E0FDA3E0FEA3E0FFBC
:10A611001239F5E47B0AFAF9F81239F5EB2430FB2B
:10A621009004E6E0FCA3E0FD9004EDE09004F4F07A
:10A63100D007D006129FA49004EEE004F002A5C654
:01A6410022F6
:0E925B00900670EEF0A3EFF0A3ECF0A3EDF0A0
:10926900A3E0FCEC33900670E0FEA3E0FFA3E0FC72
:10927900A3E0FD900679E09004F44016F07B2B12F0
:109289009FA4900674E0FCA3E0FDA3E0FEA3E0FF29
:109299008017F07B2D129FA4900674E0FCA3E0FDDB
:1092A900A3E0FEA3E0FF123A8790067B123B13E48A
:1092B90090067AF0900678E0FF90067AE0F9C39F6D
:1092C9005076E9FB7A002401FFEA33FE900679E043
:1092D900FD7C0012387F900671E02FFF900670E048
:1092E9003EFEC006C007900678E0C39BFFE49A12D1
:1092F900ACB5A804A905AA06AB0790067BE0FCA3B8
:10930900E0FDA3E0FEA3E0FF1239F5E47B0AFAF9D8
:10931900F81239F5EB2430FB900672E0FCA3E0FD6E
:10932900900679E09004F4F0D007D006129FA4903B
:08933900067AE004F00292BD87
:019341002209
:0E9ABD0090068DEEF0A3EFF0A3ECF0A3EDF019
:109ACB00E4900697F0900695E0FF900697E0FEC3B2
:109ADB009F4003029B7FEEFDC3EF9DFFE49400CFFD
:109AEB0024FFCF34FFFE3395E0FDFC9004F3123BD3
:109AFB00137F1012ACC9A804A905AA06AB079006E0
:109B0B0091E0FCA3E0FDA3E0FEA3E0FF1239F5EF2B
:109B1B00540FFF900698EFF0C3940A900696E0FA64
:109B2B00A3E08AF0501FA4FF90068EE02FFF900653
:109B3B008DE035F0FE90068FE0FCA3E0FD900698DB
:109B4B00E02430801DA4FF90068EE02FFF90068D41
:109B5B00E035F0FE90068FE0FCA3E0FD900698E068
:109B6B002437FB9004F4EAF0129FA4900697E004CC
:049B7B00F0029AD08A
:019B7F0022C3
:0EA18400900699EEF0A3EFF0A3ECF0A3EDF03F
:10A19200E49006A3F09006A1E0FD9006A3E0FCC3C4
:10A1A2009D507C9006A2E0FFEC8FF0A4FF90069AEF
:10A1B200E02FFF900699E035F0FEC006C007ECFFE5
:10A1C200C3ED9FFFE49400CF24FFCF34FFFE33950D
:10A1D200E0FDFC9004F3123B137F0212ACC9A80409
:10A1E200A905AA06AB0790069DE0FCA3E0FDA3E04B
:10A1F200FEA3E0FF1239F5EF5401FFEF2430FB908C
:10A20200069BE0FCA3E0FD9006A2E09004F4F0D0EF
:0FA2120007D006129FA49006A3E004F002A197C4
:01A22100221A
:0E71FC00900620EEF0A3EFF0A3ECF0A3EDF070
:10720A00E4FFFEFDFCA3E0F8A3E0F9A3E0FAA3E0A3
:10721A00FB12359B900620E0FEA3E0FFA3E0FCA34F
:10722A00E0FD90062AE09004F44008F07B2B129FC0
:10723A00A4801DF07B2D129FA4900624E0FCA3E0FD
:10724A00FDA3E0FEA3E0FF123614900624123B13BE
:10725A00900624E0FCA3E0FDA3E0FEA3E0FF1236C3
:10726A006390062F123B13900624E0FCA3E0FDA3D3
:10727A00E0FEA3E0FFC004C005C006C00790062FC9
:10728A00E0FCA3E0FDA3E0FEA3E0FFE4123625A89C
:10729A0004A905AA06AB07D007D006D005D0041268
:1072AA003300900624123B13900629E0FFE4FCFD0C
:1072BA00FE12ACC190062B123B1390062BE0FCA3E6
:1072CA00E0FDA3E0FEA3E0FFE4123625900624E0E9
:1072DA00F8A3E0F9A3E0FAA3E0FB1233F5E4FBFA22
:1072EA00F9783F123304123663900633123B139037
:1072FA00062FE0F8A3E0F9A3E0FAA3E0FBC000C080
:10730A0001C002C00390062BE0F8A3E0F9A3E0FA5B
:10731A00A3E0FB900633E0FCA3E0FDA3E0FEA3E0BC
:10732A00FF1239F5D003D002D001D000EB2FFFEACB
:10733A003EFEE93DFDE83CFC90062F123B13900609
:10734A002AE0FBFF900621E02FFF900620E03400A0
:10735A00FEC006C00790062FE0FCA3E0FDA3E0FEF6
:10736A00A3E0FF9004E8123B13900628E09004EC97
:10737A00F0A3EBF0900622E0FCA3E0FDD007D006D4
:10738A0012A5B3900628E02401FFE433FE90062AF2
:10739A00E0FBFD7C0012387F900621E02FFF90066B
:1073AA0020E03EFE900622E0FCA3E0FD9004F4EB10
:1073BA00F07B2E129FA4900628E02402FFE433FEFD
:1073CA0090062AE0FBFD7C0012387F900621E02F10
:1073DA00FF900620E03EFEC006C007900633E0FCA0
:1073EA00A3E0FDA3E0FEA3E0FF9004E8123B1390A4
:1073FA000629E09004ECF0A3EBF0900622E0FCA34F
:09740A00E0FDD007D00602A5B395
:108A050090067FEEF0A3EFF0A3ECF0A3EDF0A3EB5F
:078A1500F0A3EAF0A3E9F071
:108A1C00E4A3F078897C067D017BFF7ABE798DFE1C
:108A2C007F04123801E4900688F0900683E0FBA3E3
:108A3C00E0FAA3E0F9900688E0F58275830012381D
:108A4C0040FF7003028B2F900686E02489F582E4A8
:108A5C003406F583EFF0900686E004F0E0C394034F
:108A6C005003028B26E4F0A3F0900687E075F02407
:108A7C00A42470F9740835F0A801FC7DFF7BFF7A03
:108A8C00BE798C123CDAEF6028900687E075F024F2
:108A9C00A42470F9740835F0A801FC7DFF7B017AE1
:108AAC00067989123CDAEF6008900687E004F080C2
:108ABC00B8900688E02401FFE433FE7C007D0312AD
:108ACC0038E6EF24FFFFEE34FFFEEFC4F8540FC876
:108ADC0068FFEEC454F048FE900680E02FFF90062D
:108AEC007FE03EFEC006C007900687E075F024A428
:108AFC002474F9740835F0FA9004FB74FFF0A3EABF
:108B0C00F0A3E9F0900681E0FCA3E0FD9004FA7478
:108B1C0010F0D007D006FB126B3C900688E004F0F6
:038B2C00028A3684
:018B2F002223
:106B3C009004F5EEF0A3EFF0A3ECF0A3EDF0A3EBD3
:016B4C00F058
:106B4D00E49004FEF0A3F09004FAE0900509F01231
:106B5D00867AE49004FFF09004FAE024FFFFE43419
:106B6D00FFFE7C007D081238E6EF2401FFE43EFEB7
:106B7D009004FFE0C39FEE6480F874809840030298
:106B8D006D99E49004FEF09004F9E0FF9004FEE0AE
:106B9D00FEC39F4003026D90EEFF9004F6E02FFFC1
:106BAD009004F5E03400FEC3648094805003026DC0
:106BBD0087D3EF947FEE648094804003026D8790BD
:106BCD0004F7E0FAA3E0FB7C007D08FFAE0212386B
:106BDD00E6900500EEF0A3EFF07C007D08AF03AE6C
:106BED00021238E6A3ECF0A3EDF0C39004F7E064D5
:106BFD00809480501C900501E024FFF0900500E08A
:106C0D0034FFF0900503E02408F0900502E0340015
:106C1D00F09004FFE0FF900501E02FFF900500E0EC
:106C2D003400FEC3648094805003026CC6D3EF948D
:106C3D0007EE648094804003026CC6EF7807C3337F
:106C4D00CE33CED8F9240EF58274003EF583C08381
:106C5D00C0829004FEE0FF9004F6E02FFF9004F553
:106C6D00E03400FED082D083E5822FF582E5833EAD
:106C7D00F583C083C082E0FD9004F9E0FF9004FF2E
:106C8D00E08FF0A4FF9004FEE07A002FFFEA35F0CC
:106C9D00FE9004FBE0FBA3E0FAA3E0F98F828E8364
:106CAD00123840FF900502A3E0FEF8EF088002C302
:106CBD0033D8FC4DD082D083F09004FFE0F9FF90E3
:106CCD000501E02FFF900500E03400CF2401CF3403
:106CDD0000FEC3648094805003026D87D3EF940748
:106CED00EE648094804003026D87E9FFA3E02FFFDF
:106CFD00900500E03400FEEF7807C333CE33CED8D5
:106D0D00F9248EF58274003EF583C083C082900411
:106D1D00FEE0FF9004F6E02FFF9004F5E03400FE56
:106D2D00D082D083E5822FF582E5833EF583C08343
:106D3D00C082E0FD9004F9E0FF9004FFE08FF0A425
:106D4D00FF9004FEE07A002FFFEA35F0FE9004FB81
:106D5D00E0FBA3E0FAA3E0F98F828E83123840FFA7
:106D6D00900502A3E0FEC374089EFEF8EF088002B2
:106D7D00C313D8FC4DD082D083F09004FEE004F014
:0C6D8D00026B949004FFE004F0026B64C1
:016D990022D7
:1099F900E0FEA3E0FF90064EE02FFF90064DE03E0B
:109A0900FE90065DE0FCA3E0FD900650E090064F55
:059A19002DFDE03CFC06
:109A1E00900503ECF0A3EDF0900501EEF0A3EFF04E
:109A2E00C3EE648094805003029ABCD3E0947F907E
:109A3E000501E0648094805075900503E0FEA3E07C
:109A4E00FFC3EE648094804065D3EF943FEE648054
:109A5E009480505A7C007D081238E6EF7807C333A5
:109A6E00CE33CED8F9240EF58274003EF583C08332
:109A7E00C082900501E0FEA3E0D082D0832582F55E
:109A8E0082E5833EF583C083C082E0FB900503E050
:109A9E00FEA3E0FF7C007D081238E6AF05A8077430
:0F9AAE0001088002C333D8FC4BD082D083F02252
:109E54009006D5ECF0A3EDF09006D3EEF0A3EFF06E
:109E6400C3EE648094805003029EF9D3E0947F9003
:109E740006D3E064809480507C9006D5E0FEA3E095
:109E8400FFC3EE64809480406CD3EF943FEE648013
:109E9400948050617C007D081238E6EF7807C33364
:109EA400CE33CED8F9240EF58274003EF583C083F8
:109EB400C0829006D3E0FEA3E0D082D0832582F551
:109EC40082E5833EF583E0FB7A009006D5E0FEA3AD
:109ED400E0FF7C007D081238E67E007401A80508C6
:109EE4008005C333CE33CED8F9FFEE5AFEEF5B4E76
:089EF40060037F01227F0022C0
:106128009004F8EEF0A3EFF0AE04AF05A3EEF0A3F1
:10613800EFF0AD03A3EAF0A3EDF09004EAE0FCA3CE
:10614800E0FD9004FEECF0A3EDF0E4A3F0F9EF6DB0
:106158007002EE6C60030261DE9004FCE0FEA3E0D6
:10616800FF9004F8E0FCA3E0FDD39FEE6480F8EC18
:1061780064809840189004F6ECF0A3EDF09004F8D1
:10618800EEF0A3EFF09004FCECF0A3EDF09004F82F
:10619800E0FFA3E09004ECCFF0A3EFF09004FCE064
:1061A800FCA3E0FD9004ECE0FEA3E0FFD39DEC64CB
:1061B80080F8EE64809840030264E59004FAE0FCFD
:1061C800A3E0FD129A1E9004EDE004F070CE900456
:1061D800ECE004F080C69004FCE0FEA3E0FF90042D
:1061E800F8E06E7003A3E06F60030262729004FE31
:1061F800E0FEA3E0FF9004FAE0FCA3E0FDD39FEEED
:106208006480F8EC64809840189004F6ECF0A3EDF4
:10621800F09004FAEEF0A3EFF09004FEECF0A3ED9A
:10622800F09004FAE0FFA3E09004EECFF0A3EFF0C3
:106238009004FEE0FEA3E0FF9004EEE0FCA3E0FD86
:10624800D39FEE6480F8EC64809840030264E59084
:1062580004F8E0FEA3E0FF129A1E9004EFE004F0B9
:1062680070CE9004EEE004F080C69004FCE0FEA33B
:10627800E0FF9004F8E0FCA3E0FDD39FEE6480F813
:10628800EC648098403F9004F6ECF0A3EDF09004A5
:10629800F8EEF0A3EFF09004FCECF0A3EDF090041E
:1062A800FAE0FEA3E0FF9004F6EEF0A3EFF090040E
:1062B800FEE0FDA3E09004FACDF0A3EDF09004FE1B
:1062C800EEF0A3EFF09004FEE0FEA3E0FF9004FAE6
:1062D800E0FCA3E0FDD39FEE6480F8EC6480984076
:1062E8001DE49DFDE49C9004FAF0A3EDF0C3E49F47
:1062F800FFE49E9004FEF0A3EFF0A37401F0900475
:10630800F8E0FEA3E0FFC39004FDE09FFF9004FCCB
:10631800E09EFE9004FAE0FCA3E0FD9004FEE0FAA3
:10632800A3E0FBC39DFDEA9CFCD3ED9FEE6480F8DF
:10633800EC64809840439004F8E0FEA3E0FF9004EA
:10634800F6EEF0A3EFF09004FAE0FDA3E09004F875
:10635800CDF0A3EDF0A3EEF0A3EFF0A3E0FEA3E0F1
:10636800FF9004F6EEF0A3EFF09004FCEAF0A3EB44
:10637800F0A3EEF0A3EFF079019004F8E0FEA3E0BB
:10638800FFC39004FDE09FFF9004FCE09EAD07FC76
:106398009004FAE0FEA3E0FFC39004FFE09FFF90A3
:1063A80004FEE09EAB07FAEB25E0FEEA339004F228
:1063B800F0A3CEF0C3EB9DFFEA9CFEEF25E0FFEED5
:1063C80033A3F0A3EFF0AE02AF03EF25E0FFEE3307
:1063D800FEC3EF9DFFEE9C9004F0F0A3EFF0900455
:1063E800F8E0FFA3E09004ECCFF0A3EFF09004FAFC
:1063F800E0FFA3E09004EECFF0A3EFF0900500E0FB
:10640800FA6006E9600302649AEA60030264AAE992
:10641800600E9004EEE0FEA3E0FF9004EC0264DA64
:106428009004ECE0FEA3E0FFA30264DA9004FCE031
:10643800FEA3E0FFC39004EDE09FEE6480F89004B3
:10644800ECE064809840030264E5A3E004F0700681
:106458009004ECE004F0C39004F0E0648094805071
:10646800059004F280119004EFE004F070069004A7
:10647800EEE004F09004F4E0FEA3E0FF9004F1E005
:106488002FF09004F0E03EF0900500E0FA6010E98B
:10649800600D9004EEE0FEA3E0FF9004EC800CEAAF
:1064A80060179004ECE0FEA3E0FFA3E0FCA3E0FD8E
:1064B800C3E49DFDE49CFC801EE9600D9004EEE0C1
:1064C800FEA3E0FF9004EC80099004ECE0FEA3E05A
:0D64D800FFA3E0FCA3E0FD129A1E02643455
:0164E5002294
:107B43009006A4EEF0A3EFF0A3ECF0A3EDF0A903ED
:107B53009006AAE06003027C3F9006A4E0FFA3E046
:107B63009006ABCFF0A3EFF0E9FF9006A5E02FFD61
:107B73009006A4E03400FC9006ABE0FEA3E0FFC354
:107B83009DEC6480F8EE648098503E9006A6E0FC7D
:107B9300A3E0FD129A1E9006ABE0FEA3E0FF900661
:107BA300A9E0FD9006A7E02DFD9006A6E03400CDE8
:107BB30024FFCD34FFFC129A1E9006ACE004F07053
:107BC300A79006ABE004F0809F9006A6E0FFA3E039
:107BD3009006ABCFF0A3EFF09006A9E0FF9006A7C5
:107BE300E02FFF9006A6E03400FE9006ABE0FCA376
:107BF300E0FDC39FEE6480F8EC6480984003027C50
:107C0300D19006A4E0FEA3E0FF129A1EE9FF9006BE
:107C1300A5E02FFF9006A4E03400CF24FFCF34FF6C
:107C2300FE9006ABE0FCA3E0FD129A1E9006ACE0CA
:107C330004F070A49006ABE004F0809C9006A4E0EE
:107C4300FFA3E09006ABCFF0A3EFF0E9FF9006A50A
:107C5300E02FFF9006A4E03400FEC39006ACE09F43
:107C6300EE6480F89006ABE064809850619006A6BD
:107C7300E0FFA3E09006ADCFF0A3EFF09006A9E0FC
:107C8300FF9006A7E02FFF9006A6E03400FE9006C3
:107C9300ADE0FCA3E0FDC39FEE6480F8EC64809844
:107CA300501B9006ABE0FEA3E0FF129A1E9006AEB7
:107CB300E004F070C79006ADE004F080BF9006AC1E
:0E7CC300E004F070869006ABE004F0027C4E08
:017CD1002290
:106865009005C9EEF0A3EFF09005CDEAF0A3EBF0AB
:086875009005CBECF0A3EDF05F
:10687D009005C9E0FEA3E0FF9005D6EEF0A3EFF082
:10688D00A3ECF0A3EDF0A3EEF0A3EFF0A3ECF0A3D7
:10689D00EDF09005E2EEF0A3EFF09005CDE0FAA358
:1068AD00E0FB9005E4EAF0A3EBF09005D1E0FFA347
:1068BD00E09005E6CFF0A3EFF09005CBE0FCA3E070
:1068CD00FD9005E8ECF0A3EDF09005CFE0FFA3E01F
:1068DD009005EACFF0A3EFF09005D3E0FFA3E09091
:1068ED0005ECCFF0A3EFF09005D5E070669005CFE5
:1068FD00E0FFA3E09004EACFF0A3EFF09005C9A369
:10690D00E0FF1261289005CBE0FCA3E0FD9005D1DE
:10691D00E0FAA3E0FBA3E0FFA3E09004EACFF0A32D
:10692D00EFF09005C9E0FEA3E0FF1261289005CFBE
:10693D00E0FCA3E0FDA3E0FAA3E0FBA3E0FFA3E0EE
:10694D009004EACFF0A3EFF09005CDE0FEA3E0FFB9
:10695D000261289005D6E0FEA3E0FF9005CDE0FC96
:10696D00A3E0FDC39FEE6480F8EC6480985008901E
:10697D0005D6ECF0A3EDF09005D6E0FEA3E0FF9078
:10698D0005D1E0FCA3E0FDC39FEE6480F8EC6480CC
:10699D009850089005D6ECF0A3EDF09005D8E0FEE8
:1069AD00A3E0FF9005CFE0FCA3E0FDC39FEE648064
:1069BD00F8EC64809850089005D8ECF0A3EDF090B9
:1069CD0005D8E0FEA3E0FF9005D3E0FCA3E0FDC3F6
:1069DD009FEE6480F8EC64809850089005D8ECF038
:1069ED00A3EDF09005DAE0FEA3E0FF9005CDE0FC0D
:1069FD00A3E0FDD39FEE6480F8EC6480984008908E
:106A0D0005DAECF0A3EDF09005DAE0FEA3E0FF90DF
:106A1D0005D1E0FCA3E0FDD39FEE6480F8EC64802B
:106A2D009840089005DAECF0A3EDF09005DCE0FE5F
:106A3D00A3E0FF9005CFE0FCA3E0FDD39FEE6480C3
:106A4D00F8EC64809840089005DCECF0A3EDF09034
:106A5D0005DCE0FEA3E0FF9005D3E0FCA3E0FDD351
:106A6D009FEE6480F8EC64809840089005DCECF0B3
:106A7D00A3EDF09005D6E0FFA3E09005DECFF0A3E7
:106A8D00EFF09005DAE0FEA3E0FFD39005DFE09F85
:106A9D00EE6480F89005DEE06480984003026B3B65
:106AAD009005D8E0FFA3E09005E0CFF0A3EFF090C4
:106ABD0005DCE0FEA3E0FF9005E0E0FCA3E0FDD3E4
:106ACD009FEE6480F8EC64809850529006637401D8
:106ADD00F0A37405F0A374E8F09005DEE0FFA3E0E9
:106AED00900666CFF0A3EFF0A3ECF0A3EDF07B01E1
:106AFD007A0579E27F0312761FEF60119005DEE0D3
:106B0D00FEA3E0FFA3E0FCA3E0FD129A1E9005E1B9
:106B1D00E004F070069005E0E004F080929005DF4F
:0E6B2D00E004F070069005DEE004F0026A8FCE
:016B3B002237
:0E58E5009004E4EEF0A3EFF0A3ECF0A3EDF0DE
:1058F300EBFF7E00C374019F9004EFF0E49E9004DD
:10590300EEF0E49004EAF0A3F0A3F0A3EFF0900428
:10591300E5E02400FF9004E4E03400FE9004ECE0B2
:10592300FCA3E0FD9004E7E09004E6129A199004CA
:10593300EAE0FEA3E0FFC39004E5E09FFF9004E4E8
:10594300E09EFE9004ECE0FCA3E0FDC39004E7E0DE
:105953009DFD9004E6E09CFC129A1E9004ECE0FE90
:10596300A3E0FF9004E5E02FFF9004E4E03EFE9007
:1059730004EAE0FCA3E0FD9004E7E02DFD9004E6DB
:10598300E03CFC129A1E9004ECE0FEA3E0FFC390FF
:1059930004E5E09FFF9004E4E09EFE9004EAE0FC4F
:1059A300A3E0FDC39004E7E09DFD9004E6E09CFCCA
:1059B300129A1E9004E9E060589004ECE0FEA3E024
:1059C300FFC3E49FFFE49E9004F0F0A3EFF0900484
:1059D300ECE0FEA3E0FF9004F0E0FCA3E0FDC39F36
:1059E300EE6480F8EC64809850279004E4E0FEA312
:1059F300E0FF9004E7E02DFD9004E6E03CFC129A02
:105A03001E9004F1E004F070C59004F0E004F0800F
:105A1300BD9004ECE0FEA3E0FFC39004EBE09FEE37
:105A23006480F89004EAE06480984003025D2CA34C
:105A3300E004F070069004EAE004F0C39004EEE0A2
:105A430064809480500D9004EBE025E0FF9004EA1D
:105A5300E080259004EDE024FFF09004ECE034FFB7
:105A6300F0E0FEA3E0FFC39004EBE09FFF9004EAA5
:105A7300E09EFEEF25E0FFEE33FEEF2401FFE43E60
:105A8300FE9004EFE02FF09004EEE03EF09004EA85
:105A9300E0FEA3E0FF9004E5E02FFF9004E4E03E86
:105AA300FE9004ECE0FCA3E0FD9004E7E02DFD9004
:105AB30004E6E03CFC129A1E9004ECE0FEA3E0FF37
:105AC3009004E5E02FFF9004E4E03EFE9004EAE05A
:105AD300FCA3E0FD9004E7E02DFD9004E6E03CFC30
:105AE300129A1E9004EAE0FEA3E0FFC39004E5E0EF
:105AF3009FFF9004E4E09EFE9004ECE0FCA3E0FD35
:105B0300C39004E7E09DFD9004E6E09CFC129A1E1E
:105B13009004ECE0FEA3E0FFC39004E5E09FFF9058
:105B230004E4E09EFE9004EAE0FCA3E0FDC39004DD
:105B3300E7E09DFD9004E6E09CFC129A1E9004EAC7
:105B4300E0FEA3E0FF9004E5E02FFF9004E4E03ED5
:105B5300FE9004ECE0FCA3E0FDC39004E7E09DFDB0
:105B63009004E6E09CFC129A1E9004ECE0FEA3E095
:105B7300FF9004E5E02FFF9004E4E03EFE9004EA8A
:105B8300E0FCA3E0FDC39004E7E09DFD9004E6E0A4
:105B93009CFC129A1E9004EAE0FEA3E0FFC390046B
:105BA300E5E09FFF9004E4E09EFE9004ECE0FCA39C
:105BB300E0FD9004E7E02DFD9004E6E03CFC129A42
:105BC3001E9004ECE0FEA3E0FFC39004E5E09FFF1A
:105BD3009004E4E09EFE9004EAE0FCA3E0FD900460
:105BE300E7E02DFD9004E6E03CFC129A1E9004E9E8
:105BF300E07003025A149004ECE0FEA3E0FFC3E458
:105C03009FFFE49E9004F0F0A3EFF09004ECE0FE1D
:105C1300A3E0FFC39004F1E09FEE6480F89004F0EA
:105C2300E064809850689004EAE0FEA3E0FF9004EB
:105C3300E5E02FFF9004E4E03EFE9004F0E0FCA3D7
:105C4300E0FD9004E7E02DFD9004E6E03CFC129AB1
:105C53001E9004EAE0FEA3E0FFC39004E5E09FFF8B
:105C63009004E4E09EFE9004F0E0FCA3E0FD9004C9
:105C7300E7E02DFD9004E6E03CFC129A1E9004F14F
:105C8300E004F070869004F0E004F0025C0E9004EF
:105C9300EAE0FEA3E0FFC3E49FFFE49E9004F0F07C
:105CA300A3EFF09004EAE0FEA3E0FFC39004F1E069
:105CB3009FEE6480F89004F0E06480984003025AF9
:105CC300149004ECE0FEA3E0FFC39004E5E09FFF23
:105CD3009004E4E09EFE9004F0E0FCA3E0FD900459
:105CE300E7E02DFD9004E6E03CFC129A1E9004ECE4
:105CF300E0FEA3E0FF9004E5E02FFF9004E4E03E24
:105D0300FE9004F0E0FCA3E0FD9004E7E02DFD909D
:105D130004E6E03CFC129A1E9004F1E004F0708368
:095D23009004F0E004F0025CA61B
:015D2C002254
:0E456F009005EEEEF0A3EFF0A3ECF0A3EDF05C
:10457D00AF039005FBE4F0A3EFF09005F3E0FF909F
:10458D0005FDE4F0A3EFF0E49005F5F0A3F0900540
:10459D00FDE0FEA3E0FF9005F7EEF0A3EFF0C3E41E
:1045AD009FFDE49EFC12362AE4FBFAF9783F1233A4
:1045BD0004C004C005C006C0079005FBE0FCA3E0E5
:1045CD00FDFFAE0412387FAC06AD07EC12362AD0D3
:1045DD0003D002D001D0001233F5C004C005C006CF
:1045ED00C0079005FDE0FCA3E0FD9005FDE0FEA3F6
:1045FD00E0FF12387FAC06AD07EC12362AD003D09F
:10460D0002D001D0001233049005FF123B13900528
:10461D00F4E060739005F7E0FEA3E0FFC3E49FFFB5
:10462D00E49EA3F0A3EFF09005F7E0FEA3E0FFA357
:10463D00E0FCA3E0FDC39FEE6480F8EC648098502D
:10464D00469005EEE0FEA3E0FF9005F1E02DFD9014
:10465D0005F0E03CFC129A1E9005EEE0FEA3E0FF93
:10466D009005F9E0FCA3E0FD9005F1E02DFD90052E
:10467D00F0E03CFC129A1E9005FAE004F070A89050
:10468D0005F9E004F080A00248D99005F7E0FCA3FD
:10469D00E0FDEC12362AE4FBFAF978BF123304C0C0
:1046AD0004C005C006C0079005FBE0FCA3E0FDFFBC
:1046BD00AE0412387FAC06AD07EC12362AD003D00B
:1046CD0002D001D0001233F5C004C005C006C007EA
:1046DD009005FDE0FCA3E0FDFFAE0412387F9005D0
:1046ED00F6E02401FD9005F5E03400FC12387FACB6
:1046FD0006AD07EC12362AA804A905AA06AB07D009
:10470D0007D006D005D00412359B400302498CE436
:10471D00FFFEFDFC9005FFE0F8A3E0F9A3E0FAA38E
:10472D00E0FB12359B9005FF6002505CE0F8A3E0C2
:10473D00F9A3E0FAA3E0FBC000C001C002C00390E2
:10474D0005FDE0FCA3E0FDFFAE0412387FAA06AB29
:10475D00079005F6E025E0FF9005F5E033FEEF2428
:10476D0003FDE43EFCAF03AE0212387FAC06AD078D
:10477D00EC12362AD003D002D001D00012330490AF
:10478D0005FF123B1302482CE0F8A3E0F9A3E0FA71
:10479D00A3E0FBC000C001C002C0039005F7E0FE1E
:1047AD00A3E0FF7CFF7DFE12387FEF2402FBE43E89
:1047BD00FA9005FBE0FCA3E0FDFFAE0412387FADDF
:1047CD0003AC0212387FC006C007A3E0FCA3E0FDD6
:1047DD00FFAE0412387FAA06AB079005F6E025E080
:1047ED00FF9005F5E033FEEF2403FDE43EFCAF033F
:1047FD00AE0212387FD0E02FFDD0E03EFC12362AFB
:10480D00D003D002D001D0001233049005FF123B2B
:10481D00139005F8E024FFF09005F7E034FFF090D9
:10482D0005F6E004F070069005F5E004F09005F44F
:10483D00E070030248D99005F7E0FEA3E0FFC3E462
:10484D009FFFE49EA3F0A3EFF09005F7E0FEA3E039
:10485D00FFC39005FAE09FEE6480F89005F9E064DF
:10486D00809850689005F5E0FEA3E0FF9005EFE01D
:10487D002FFF9005EEE03EFE9005F9E0FCA3E0FD74
:10488D009005F1E02DFD9005F0E03CFC129A1E9094
:10489D0005F5E0FEA3E0FFC39005EFE09FFF900557
:1048AD00EEE09EFE9005F9E0FCA3E0FD9005F1E041
:1048BD002DFD9005F0E03CFC129A1E9005FAE004E7
:1048CD00F070869005F9E004F00248569005F5E089
:1048DD00FEA3E0FF9005EFE02FFF9005EEE03EFE1A
:1048ED009005F7E0FCA3E0FD9005F1E02DFD9005AE
:1048FD00F0E03CFC129A1E9005F5E0FEA3E0FFC32C
:10490D009005EFE09FFF9005EEE09EFE9005F7E02D
:10491D00FCA3E0FDC39005F1E09DFD9005F0E09C4A
:10492D00FC129A1E9005F5E0FEA3E0FFC39005EF83
:10493D00E09FFF9005EEE09EFE9005F7E0FCA3E002
:10494D00FD9005F1E02DFD9005F0E03CFC129A1E66
:10495D009005F5E0FEA3E0FF9005EFE02FFF900539
:10496D00EEE03EFE9005F7E0FCA3E0FDC39005F1FF
:10497D00E09DFD9005F0E09CFC129A1E024697907A
:10498D0005F5E0FCA3E0FDEC12362AE4FBFAF9781C
:10499D003F123304C004C005C006C0079005FDE0FA
:1049AD00FCA3E0FDFFAE0412387FAC06AD07EC12A0
:1049BD00362AD003D002D001D0001233F5C004C086
:1049CD0005C006C0079005F5E0FCA3E0FDEC12362E
:1049DD002AE4FBFAF9783F123304D003D002D00158
:1049ED00D0001233F5C004C005C006C0079005FB0A
:1049FD00E0FCA3E0FDFFAE0412387F9005F8E02443
:104A0D00FFFB9005F7E034FFAD03FC12387F123841
:104A1D007FAC06AD07EC12362AD003D002D001D000
:104A2D0000123304C004C005C006C0079005FBE0AA
:104A3D00FCA3E0FD9005FBE0FEA3E0FF12387FA391
:104A4D00E0FAA3E0FDAC0212387F12387FAC06AD60
:104A5D0007EC12362AA804A905AA06AB07D007D081
:104A6D0006D005D004123300900603123B13D390E9
:104A7D0005F8E094009005F7E064809480500302FF
:104A8D004D02E4FFFEFDFC900603E0F8A3E0F9A360
:104A9D00E0FAA3E0FB12359B60054003024B489002
:104AAD000603E0F8A3E0F9A3E0FAA3E0FBC000C021
:104ABD0001C002C0039005F7E0FEA3E0FF7CFF7D7F
:104ACD00FE12387FEF2403FBE43EFA9005FBE0FC79
:104ADD00A3E0FDFFAE0412387FAD03AC0212387FA8
:104AED00C006C007A3E0FCA3E0FDFFAE0412387FB3
:104AFD00AA06AB079005F6E025E0FF9005F5E0333B
:104B0D00FEEF2402FDE43EFCAF03AE0212387FD06F
:104B1D00E02FFDD0E03EFC12362AD003D002D001AA
:104B2D00D000123304900603123B139005F6E004F7
:104B3D00F070629005F5E004F0805A900603E0F8FD
:104B4D00A3E0F9A3E0FAA3E0FBC000C001C002C0DE
:104B5D00039005F7E0FEA3E0FF7CFF7DFE12387F9A
:104B6D00EF2403FBE43EFA9005FBE0FCA3E0FDFF20
:104B7D00AE0412387FAD03AC0212387FAC06AD0720
:104B8D00EC12362AD003D002D001D000123304909B
:104B9D000603123B139005F8E024FFF09005F7E0B3
:104BAD0034FFF09005F4E07003024C4F9005F7E0F0
:104BBD00FEA3E0FFC3E49FFFE49EA3F0A3EFF090FC
:104BCD0005F7E0FEA3E0FFC39005FAE09FEE6480D9
:104BDD00F89005F9E064809850689005F5E0FEA323
:104BED00E0FF9005EFE02FFF9005EEE03EFE900513
:104BFD00F9E0FCA3E0FD9005F1E02DFD9005F0E05E
:104C0D003CFC129A1E9005F5E0FEA3E0FFC3900553
:104C1D00EFE09FFF9005EEE09EFE9005F9E0FCA30E
:104C2D00E0FD9005F1E02DFD9005F0E03CFC129AC1
:104C3D001E9005FAE004F070869005F9E004F0028C
:104C4D004BCC9005F5E0FEA3E0FF9005EFE02FFFC4
:104C5D009005EEE03EFE9005F7E0FCA3E0FD90052B
:104C6D00F1E02DFD9005F0E03CFC129A1E9005F54B
:104C7D00E0FEA3E0FFC39005EFE09FFF9005EEE09F
:104C8D009EFE9005F7E0FCA3E0FDC39005F1E09DCD
:104C9D00FD9005F0E09CFC129A1E9005F5E0FEA338
:104CAD00E0FFC39005EFE09FFF9005EEE09EFE90C4
:104CBD0005F7E0FCA3E0FD9005F1E02DFD9005F07A
:104CCD00E03CFC129A1E9005F5E0FEA3E0FF900576
:104CDD00EFE02FFF9005EEE03EFE9005F7E0FCA320
:104CED00E0FDC39005F1E09DFD9005F0E09CFC1208
:054CFD009A1E024A7B33
:014D0200228E
:0E4D030090064DEEF0A3EFF0A3ECF0A3EDF060
:104D1100EBFF7E00C374019F90065CF0E49E900659
:104D21005BF0E4900657F0A3F0A3F0FCA3EFF0FDD5
:104D3100900652E0FAA3E0FBA3E0FFA3E09006C9CE
:104D4100CFF0A3EFF0E4FF129367EF601A900657DC
:104D5100E0FEA3E0FF90064EE02FFF90064DE03EFF
:104D6100FE900659129A0D900657E0FEA3E0FFC38C
:104D7100E49FFFE49EFEC006C007A3E0FEA3E0FFA0
:104D8100C3E49FFDE49EFC900652E0FAA3E0FBA37E
:104D9100E0FFA3E09006C9CFF0A3EFF0D007D00663
:104DA100129367EF602D900657E0FEA3E0FFC390DA
:104DB100064EE09FFF90064DE09EFE900659E0FCF6
:104DC100A3E0FDC3900650E09DFD90064FE09CFCE2
:104DD100129A1E129342EF601A900659E0FEA3E068
:104DE100FF90064EE02FFF90064DE03EFE900657E5
:104DF100129A0D900659E0FEA3E0FFC3E49FFFE481
:104E01009EFEC006C007900657E0FEA3E0FFC3E484
:104E11009FFDE49EFC900652E0FAA3E0FBA3E0FFB5
:104E2100A3E09006C9CFF0A3EFF0D007D00612930C
:104E310067EF602D900659E0FEA3E0FFC390064E98
:104E4100E09FFF90064DE09EFE900657E0FCA3E038
:104E5100FDC3900650E09DFD90064FE09CFC129A28
:104E61001E900656E0606A900659E0FEA3E0FFC37B
:104E7100E49FFFE49E90065DF0A3EFF0900659E0F9
:104E8100FEA3E0FF90065DE0FCA3E0FDC39FEE649E
:104E910080F8EC6480985039900652E0FAA3E0FB68
:104EA100A3E0FFA3E09006C9CFF0A3EFF0E4FFFE7B
:104EB100129367EF600B90064DE0FEA3E0FF129A9C
:104EC1000A90065EE004F070B390065DE004F080A5
:104ED100AB900659E0FEA3E0FFC3900658E09FEEB9
:104EE1006480F8900657E0648098400302531AA347
:104EF100E004F07006900657E004F0C390065BE012
:104F010064809480500D900658E025E0FF9006578C
:104F1100E0802590065AE024FFF0900659E034FF26
:104F2100F0E0FEA3E0FFC3900658E09FFF90065714
:104F3100E09EFEEF25E0FFEE33FEEF2401FFE43EAD
:104F4100FE90065CE02FF090065BE03EF090065983
:104F5100E0FCA3E0FD900652E0FAA3E0FBA3E0FF32
:104F6100A3E09006C9CFF0A3EFF090065712936229
:104F7100EF601A900657E0FEA3E0FF90064EE02F87
:104F8100FF90064DE03EFE900659129A0D12934293
:104F9100EF601A900659E0FEA3E0FF90064EE02F65
:104FA100FF90064DE03EFE900657129A0D9006576F
:104FB100E0FEA3E0FFC3E49FFFE49EFEC006C0073E
:104FC100A3E0FEA3E0FFC3E49FFDE49EFC90065234
:104FD100E0FAA3E0FBA3E0FFA3E09006C9CFF0A3B2
:104FE100EFF0D007D006129367EF602D900657E0DF
:104FF100FEA3E0FFC390064EE09FFF90064DE09EAA
:10500100FE900659E0FCA3E0FDC3900650E09DFD33
:1050110090064FE09CFC129A1E900659E0FEA3E018
:10502100FFC3E49FFFE49EFEC006C007900657E061
:10503100FEA3E0FFC3E49FFDE49EFC900652E0FA6C
:10504100A3E0FBA3E0FFA3E09006C9CFF0A3EFF03C
:10505100D007D006129367EF602D900659E0FEA3AA
:10506100E0FFC390064EE09FFF90064DE09EFE904C
:105071000657E0FCA3E0FDC3900650E09DFD9006BD
:105081004FE09CFC129A1E900659E0FCA3E0FDC380
:10509100E49DFDE49CFC900652E0FAA3E0FBA3E052
:1050A100FFA3E09006C9CFF0A3EFF090065712934B
:1050B10062EF602C900657E0FEA3E0FF90064EE001
:1050C1002FFF90064DE03EFE900659E0FCA3E0FD67
:1050D100C3900650E09DFD90064FE09CFC129A1E85
:1050E100900657E0FCA3E0FDC3E49DFDE49CFC12A7
:1050F100934AEF602C900659E0FEA3E0FF90064E24
:10510100E02FFF90064DE03EFE900657E0FCA3E045
:10511100FDC3900650E09DFD90064FE09CFC129A65
:105121001E900657E0FEA3E0FFC3E49FFFE49EFE4E
:10513100C007A3E0FCA3E0FD900652E0FAA3E0FB68
:10514100A3E0FFA3E09006C9CFF0A3EFF0D00712D0
:105151009367EF601B900657E0FEA3E0FFC3900644
:105161004EE09FFF90064DE09EFE900659129A0D6B
:10517100900659E0FEA3E0FFC3E49FFFE49EFEC05A
:1051810007900657E0FCA3E0FD900652E0FAA3E089
:10519100FBA3E0FFA3E09006C9CFF0A3EFF0D00797
:1051A100129367EF601B900659E0FEA3E0FFC390E6
:1051B100064EE09FFF90064DE09EFE900657129A24
:1051C1000D900656E07003024ED2900659E0FEA300
:1051D100E0FFC3E49FFFE49E90065DF0A3EFF09033
:1051E1000659E0FEA3E0FF90065DE0FCA3E0FDC3ED
:1051F1009FEE6480F8EC648098400302528190062F
:1052010052E0FAA3E0FBA3E0FFA3E09006C9CFF0D0
:10521100A3EFF0900657129362EF600690065712C3
:1052210099F9900657E0FEA3E0FFC3E49FFFE49ED7
:10523100FEC00790065DE0FCA3E0FD900652E0FA97
:10524100A3E0FBA3E0FFA3E09006C9CFF0A3EFF03A
:10525100D007129367EF6017900657E0FEA3E0FFB7
:10526100C390064EE09FFF90064DE09E129A099072
:10527100065EE004F0700690065DE004F00251E085
:10528100900657E0FEA3E0FFC3E49FFFE49E900673
:105291005DF0A3EFF0900657E0FEA3E0FF90065DFE
:1052A100E0FCA3E0FDC39FEE6480F8EC64809840CD
:1052B10003024ED2900659E0FEA3E0FFC3E49FFF34
:1052C100E49EFEC007900652E0FAA3E0FBA3E0FFD4
:1052D100A3E09006C9CFF0A3EFF0D007129367EFD8
:1052E1006017900659E0FEA3E0FFC390064EE09FD1
:1052F100FF90064DE09E129A0990065D129345EFCC
:1053010060069006591299F990065EE004F0700665
:0953110090065DE004F0025296E2
:01531A002270
:0FBE5F00A907ED24B012BBD0E9540FFF02BBDDE1
:0AB9E900E4FDFCC3ED9FEC9E50212D
:10B9F3009004F2741BF0A37440F09004F3E014F08D
:0ABA030070F89004F2E014F070F007
:07BA0D000DBD00010C80D803
:01BA1400220F
:05BF2D00007F1FDFFE94
:01BF320022EC
:0EAE6500C39FFDE49EFC7B107A007F107E00F0
:10AE7300900503EAF0A3EBF0900501EEF0A3EFF0E9
:10AE830012B39AE4900505F0A3F0900503E0FEA346
:10AE9300E0FFA3E0FCA3E0FDC39FEC9E502A9005D6
:10AEA30002E02DFF900501E03CFED3EF9480EE9489
:10AEB300005015E4FF12B3A7900506E004F070CA32
:0BAEC300900505E004F080C202BEA76D
:10B0C2009004F27405F0A3E4F0A374C8F07D07E4E1
:10B0D200FF12B39AE4FAEAFF900001E02FFF90001A
:10B0E20000E03400FE9004F3E0FCA3E0FD1238918E
:10B0F20074AC2DF58274093CF583E493FF12B3A777
:10B102000AEAB480D112BEA79004F2E0FF900001D7
:0AB11200E02FF0900000E03400F0A0
:01B11C002210
:10853B009004F27403F0E4A3F0A3F09004F7F0A31B
:10854B00F0A3F0A37418F0900003E02418FF900040
:10855B0002E03400FE9004F2E0FD3395E0FCC3E44E
:10856B009DFDE49CFCD3EF9DEC6480F8EE64809859
:10857B005018900002E4F0A37480F012B34A7C0010
:10858B007D031238E6900004EDF0900002E0FEA3AC
:10859B00E0FFC3EE648094805017C3E49FFFE49E1A
:1085AB009004F7F0A3EFF0900004E004FDE4FF80EB
:1085BB000A900002A3E0FFA3E004FD12BE5F12B31A
:1085CB009D9004F7E0FFA3E09004F5CFF0A3EFF04C
:1085DB009004F2E0FF3395E0FE9004FAE02FFF9059
:1085EB0004F9E03EFE9004F5E0FCA3E0FDC39FEE32
:1085FB006480F8EC648098505C900003E02DFF9051
:10860B000002E03CFED3EF947FEE648094805045F3
:10861B009004F9E0FEA3E0FF9004F5A3E0C39FEE06
:10862B006480F8EC648098500E74012DF582740C04
:10863B003CF583E4938001E49004FBF09004FBE0B1
:10864B00FF12B3A79004F6E004F070849004F5E0F9
:10865B0004F00285DB12BEA79004F2E0FF3395E035
:0E866B00FEC3900003E09FF0900002E09EF03E
:0186790022DE
:10AADC00E49004F2F0A3F0900005E004F0E05401DF
:10AAEC00F0E49004F4F09004F4E0FFC39402505AA4
:10AAFC00EF240612B397E4FA9004F4E075F010A476
:10AB0C00FFEA7C002FFEEC35F09004F2F0A3CEF0BF
:10AB1C009004F2E0FEA3E0FF900005E0C43354E0A3
:10AB2C002419F582E4340CF583E5822FF582E58354
:10AB3C003EF583E493F9FF12B3A70AEAB410B912F5
:0AAB4C00BEA79004F4E004F0809C22
:01AB560022DC
:1083F8009006CB7405F0E4A3F0A3F0A3F0A3F0A3D8
:10840800F0A3F0900007E02400FF900006E034009D
:10841800FED3EF9400EE64809480501C9006CBE06D
:10842800FB3395E0FA7D067C00E4FFFE12AE739004
:108438000006E4F0A37480F0E49006D2F09006D22F
:10844800E0FFC394024003028500900006E0FCA30D
:10845800E0FDC3EC648094805015C3E49DFDE49C6A
:108468009006CCF0A3EDF0EF2406FDE4FF800D901C
:108478000006A3E0FF9006D2E02406FD12BE5F12BC
:10848800B39D9006CCA3E0FAEAFFD39006CFE09F15
:108498007480F89006CEE06480984050900007E021
:1084A8002FFF900006E03400FED3EF947FEE648047
:1084B800948050389006D2E0FF7E009006CEE0FC13
:1084C800A3E0FD12387FEA7C002FFFEC3EA3F0A367
:1084D800EFF09006D0E0FEA3E024E9F582740D3EAB
:1084E800F583E493F9FF12B3A70A809C12BEA79004
:1084F80006D2E004F00284459006CEE0FEA3E0FF39
:10850800900007E02FFF900006E03EFE9006CBE0CB
:10851800FB3395E0FA7D067C0012AE739006CBE043
:10852800FF3395E0FEC3900007E09FF0900006E05F
:028538009EF0B3
:01853A00221E
:0577EE009004F2EFF031
:1077F300A37405F0E4A3F0A3F0A3F0A3F0A3F0A314
:10780300F0A3F0A3F0EDB40121900008E4F0A37419
:1078130080F09004F3E0FB3395E0FA7D067C00E40E
:10782300FFFE12AE737E007F80229004F2E0FF70B1
:107833000A9004F6F0A37408F08021EFB4010B90D2
:1078430004F6E4F0A37410F08012EF64026004EF16
:10785300B403099004F6E4F0A37418F0E49004FC74
:10786300F09004FCE0FFC39402400302796D9000A2
:1078730008E0FCA3E0FDC3EC648094805015C3E4EE
:107883009DFDE49C9004F4F0A3EDF0EF2406FDE4E9
:10789300FF800D900008A3E0FF9004FCE02406FDA8
:1078A30012BE5F12B39D9004F4A3E0FAEAFFD390F3
:1078B30004F7E09F7480F89004F6E0648098500326
:1078C300027961900009E02FFF900008E03400FE88
:1078D300D3EF947FEE648094804003027961900437
:1078E300FCE0FF7E009004F6E0FCA3E0FD12387F8D
:1078F300EA7C002FFFEC3E9004FAF0A3EFF0900433
:10790300F2E0FF70109004FAE0FCA3E024D9F582C2
:10791300740D3C8035EFB401109004FAE0FEA3E04F
:1079230024E9F582740D3E80219004F2E09004FA7C
:10793300B4020CE0FEA3E02409F582740E800AE091
:10794300FEA3E02439F582740E3EF583E49390049C
:10795300FDF09004FDE0FF12B3A70A0278AF12BE58
:10796300A79004FCE004F00278649004F6E0FEA320
:10797300E0FF900009E02FFF900008E03EFE900436
:10798300F3E0FB3395E0FA7D067C0012AE739004BE
:10799300F3E0FF3395E0FEC3900009E09FFD900004
:0E79A30008E09EFCF0A3EDF0EF2DFFEE3CFEA1
:0179B10022B3
:057413009004F2EFF00F
:1074180078F37C047D017BFF7ABE79917E007F0939
:10742800123801E49004FCF0A3F0900500F09004F9
:10743800F2E0B40113E490000BF0A3F0A3F0900085
:107448000A7408F0E4FEFF2290000DE0FF7035900A
:10745800000AE0FD3395E0FC74F32DF58274043CDA
:10746800F583E0FD3395E0FC90000CE02DF09000F2
:107478000BE03CF090000AE014F0E0C364809480D4
:107488005002E4F0EFB4013790000AE0FF3395E0D2
:10749800FE74F32FF58274043EF583E0FF3395E024
:1074A800FEC390000CE09FF090000BE09EF090006F
:1074B8000AE004F0E0D36480948840037408F0C3C1
:1074C80090000CE0941F90000BE064809480400FC3
:1074D80090000D7401F090000BE4F0A3741FF0D33A
:1074E80090000CE0940090000BE064809480500BB6
:1074F800E490000DF090000BF0A3F090000BE0FE7C
:10750800A3E0FFD39407EE648094805007E49005CD
:1075180000F0803CD3EF940FEE6480948050089084
:1075280005007401F08029D3EF9417EE64809480ED
:1075380050089005007402F08016D3EF941FEE6493
:1075480080948090050050057403F080037404F063
:10755800E49004FFF09004FFE0FFC39403400302AB
:1075680075EDA3E0FEC374059EFEEF2E12B397E4FB
:107578009004FEF09004FEE0FDC39410505BA3E07D
:1075880075F010A47C002DFEEC35F09004FCF0A3FF
:10759800CEF090000BE0FEA3E0FF7D081238E690E5
:1075A8000C5975F030ED123B50EC75F030A4258382
:1075B800F583C083C0829004FCE0FEA3E0D082D0B3
:1075C800832582F582E5833EF583E493FAFF12B3BF
:1075D800A79004FEE004F0809B12BEA79004FFE091
:1075E80004F002755D90000DE0700E900500E0FF5C
:1075F8003395E0FE740812AE6590000DE0B4010EFC
:10760800900500E0FF3395E0FE740412AE6590002B
:067618000BE0FEA3E0FF01
:01761E002249
:10B3E300E49004F2F0A3F0A37402F09004F4E0FDFF
:10B3F300C3940550347F3412B39AE4FA9004F2E410
:10B4030075F00112391CFE746925F0F582740E3E45
:10B41300F583E493F9FF12B3A70AEAB418DE12BE68
:09B42300A79004F4E004F080C2DB
:01B42C0022FD
:1000460000000000000000000000000000000000AA
:10005600000000F80000000000000033300000003F
:1000660000160E00160E0000000000000000000042
:1000760040C07840C0784000043F04043F040400B8
:10008600007088FC08300000001820FF211E0000C8
:10009600F008F000E018000000211C031E211E00DD
:1000A60000F00888700000001E2123241927211063
:1000B600000000160E000000000000000000000016
:1000C600000000E0180402000000000718204000AD
:1000D60000020418E000000000402018070000009D
:1000E600404080F0804040000202010F0102020001
:1000F600000000F0000000000101011F01010100E5
:10010600000000000000000000B0700000000000C9
:1001160000000000000000000001010101010101D2
:100126000000000000000000003030000000000069
:10013600000000008060180400601806010000003E
:1001460000E010080810E000000F102020100F003B
:10015600001010F8000000000020203F20200000C2
:10016600007008080888700000302824222130001A
:1001760000300888884830000018202020110E0022
:100186000000C02010F8000000070424243F2400CB
:1001960000F80888880808000019212020110E00A0
:1001A60000E0108888180000000F112020110E00B2
:1001B60000380808C83808000000003F00000000AA
:1001C6000070880808887000001C222121221C006B
:1001D60000E010080810E0000000312222110F0094
:1001E600000000C0C0000000000000303000000029
:1001F600000000C0C0000000000080B070000000D9
:1002060000008040201008000001020408102000B1
:1002160040404040404040000404040404040400FC
:100226000008102040800000002010080402010091
:10023600007048080808F000000000303601000091
:10024600C030C828E810E0000718272423140B0044
:100256000000C038E0000000203C230202273820BE
:1002660008F8888888700000203F202020110E00A2
:10027600C030080808083800071820202010080099
:1002860008F808080810E000203F202020100F0082
:1002960008F88888E8081000203F2020232018004E
:1002A60008F88888E8081000203F200003000000B6
:1002B600C03008080838000007182020221E020057
:1002C60008F808000008F808203F210101213F2016
:1002D600000808F8080800000020203F2020000041
:1002E60000000808F8080800C08080807F00000031
:1002F60008F888C028180800203F2001263820006A
:1003060008F8080000000000203F202020203000D0
:1003160008F8F800F8F80800203F003F003F2000EA
:1003260008F830C00008F808203F200007183F00F2
:10033600E01008080810E0000F10202020100F0021
:1003460008F808080808F000203F21010101000014
:10035600E01008080810E0000F18242438504F0059
:1003660008F8888888887000203F2000030C302019
:1003760000708808080838000038202121221C0057
:10038600180808F8080818000000203F20000000A0
:1003960008F808000008F808001F202020201F0089
:1003A6000878880000C83808000007380E010000E9
:1003B600F80800F80008F800033C0700073C0300B3
:1003C600081868808068180820302C03032C302019
:1003D6000838C800C83808000000203F2000000088
:1003E60010080808C83808002038262120201800E0
:1003F600000000FE020202000000007F40404000B4
:10040600000C30C000000000000000010638C000EB
:1004160000020202FE000000004040407F00000093
:100426000020100804081020000000000000000052
:1004360000000000000000008080808080808080B6
:100446000002040800000000000000000000000098
:1004560000008080808000000019242222223F2094
:1004660008F8008080000000003F112020110E00D7
:100476000000008080800000000E11202020110066
:10048600000000808088F800000E112020103F2018
:100496000000808080800000001F2222222213009C
:1004A600008080F0888888180020203F20200000E7
:1004B6000000808080808000006B9494949360009C
:1004C60008F8008080800000203F210000203F20A7
:1004D60000809898000000000020203F20200000A7
:1004E600000000809898000000C08080807F000097
:1004F60008F8000080808000203F24022D30200074
:10050600000808F8000000000020203F202000001E
:100516008080808080808000203F20003F20003F38
:10052600008080008080000000203F2100203F20C6
:100536000000808080800000001F202020201F00F7
:10054600808000808000000080FFA12020110E0026
:100556000000008080808000000E112020A0FF8017
:10056600808080008080800020203F2120000100C4
:100576000000808080808000003324242424190019
:10058600008080E0808000000000001F2020000026
:100596008080000000808000001F202020103F2067
:1005A600808080000080808000010E3008060100F7
:1005B60080800080008080800F300C030C300F009C
:1005C60000808000808080000020312E0E312000C7
:1005D600808080000080808080818E7018060100F7
:1005E60000808080808080000021302C2221300015
:1005F60000000000807C020200000000003F404036
:1006060000000000FF00000000000000FF000000E6
:100616000002027C800000000040403F0000000015
:1006260000804040800000800000000000010100C2
:100636000000000000000000002F0000000007007E
:10064600070000147F147F1400242A7F2A12002337
:100656001308646200364955225000000007000066
:1006660000001C224100000041221C000014083E2C
:1006760008140008083E0808000000A060000008F2
:100686000808080800006060000000201008040246
:10069600003E5149453E0000427F40000042615104
:1006A6004946002141454B31001814127F1000279E
:1006B60045454539003C4A49493000017109050361
:1006C60000364949493600064949291E0000363692
:1006D60000000000563600000008142241000014F5
:1006E60014141414000041221408000201510906D2
:1006F600003E4955592E007C1211127C007F494953
:100706004936003E41414122007F4141221C007F83
:1007160049494941007F09090901003E4149497A91
:10072600007F0808087F0000417F4100002040410B
:100736003F01007F08142241007F40404040007F77
:10074600020C027F007F0408107F003E4141413EBB
:10075600007F09090906003E4151215E007F091903
:1007660029460046494949310001017F0101003F00
:100776004040403F001F2040201F003F4038403F80
:1007860000631408146300070870080700615149E4
:10079600454300007F41410000020408102000008C
:1007A60041417F00000402010204004040404040F5
:1007B600000001020400002054545478007F48448D
:1007C600443800384444442000384444487F0038C4
:1007D6005454541800087E0901020018A4A4A47CED
:1007E600007F080404780000447D400000408084B7
:1007F6007D00007F102844000000417F4000007CFF
:1008060004180478007C080404780038444444380A
:1008160000FC242424180018242418FC007C080456
:10082600040800485454542000043F444020003C2F
:100836004040207C001C2040201C003C4030403CB6
:10084600004428102844001CA0A0A07C0044645446
:100856004C440000087F41000000007F00000000BB
:10086600417F0800000804081008EFBC8C00000057
:100876000000000000000000000000000000000072
:100886005838000000000000000000000000E3806F
:1008960082000000000000000000000000000000D0
:1008A60000000000182424180000000000000000CA
:1008B6000000E4BDA000008060F8074020180F0883
:1008C600C80808281800010000FF00100C0340802B
:1008D6007F0001061800E5A5BD001010F01F10F0FE
:1008E60000808282E2928A86800040221508166184
:1008F600000040807F0000000000E4B89600202041
:1009060020FE2020FF202020FF20202020000000A5
:10091600007F404047444444474040400000E7953C
:100926008C00000000FE929292FE929292FE0000CF
:10093600000008080484621E010001FE0204040887
:10094600080000000000FF010101310909090989B9
:100956007101010101FFFF80808080808096818087
:100966008080808080FFFF01818181FD8991A1C106
:10097600FD81818101FFFF808080809F8884828144
:100986009F80808080FF4040C26AFFE50F7AEAF2CE
:100996006220E020408002024356FFA7F05E574FD8
:1009A600460407040201C8C8C828282808C8C80879
:1009B6000808080808080808080808480808C8C8F1
:1009C600C808383808080808084848080808080801
:1009D6000828084848480808082828080808080871
:1009E600080808C808080808080808480808080881
:1009F60008083838080808080808080808080848D1
:100A060008282808484808080808080808080808A0
:100A16000808280808080838380868080808080870
